{
  "contractName": "PlaylistLikes",
  "abi": [
    {
      "inputs": [],
      "stateMutability": "nonpayable",
      "type": "constructor"
    },
    {
      "anonymous": false,
      "inputs": [
        {
          "indexed": true,
          "internalType": "address",
          "name": "user",
          "type": "address"
        },
        {
          "indexed": false,
          "internalType": "uint256",
          "name": "coins",
          "type": "uint256"
        }
      ],
      "name": "CoinRewarded",
      "type": "event"
    },
    {
      "anonymous": false,
      "inputs": [
        {
          "indexed": true,
          "internalType": "address",
          "name": "from",
          "type": "address"
        },
        {
          "indexed": true,
          "internalType": "address",
          "name": "to",
          "type": "address"
        },
        {
          "indexed": false,
          "internalType": "uint256",
          "name": "value",
          "type": "uint256"
        }
      ],
      "name": "Transfer",
      "type": "event"
    },
    {
      "inputs": [],
      "name": "COIN_REWARD",
      "outputs": [
        {
          "internalType": "uint256",
          "name": "",
          "type": "uint256"
        }
      ],
      "stateMutability": "view",
      "type": "function",
      "constant": true
    },
    {
      "inputs": [],
      "name": "LIKE_THRESHOLD",
      "outputs": [
        {
          "internalType": "uint256",
          "name": "",
          "type": "uint256"
        }
      ],
      "stateMutability": "view",
      "type": "function",
      "constant": true
    },
    {
      "inputs": [
        {
          "internalType": "address",
          "name": "",
          "type": "address"
        }
      ],
      "name": "balances",
      "outputs": [
        {
          "internalType": "uint256",
          "name": "",
          "type": "uint256"
        }
      ],
      "stateMutability": "view",
      "type": "function",
      "constant": true
    },
    {
      "inputs": [
        {
          "internalType": "address",
          "name": "user",
          "type": "address"
        }
      ],
      "name": "getUserCoins",
      "outputs": [
        {
          "internalType": "uint256",
          "name": "",
          "type": "uint256"
        }
      ],
      "stateMutability": "view",
      "type": "function",
      "constant": true
    },
    {
      "inputs": [
        {
          "internalType": "address",
          "name": "to",
          "type": "address"
        },
        {
          "internalType": "uint256",
          "name": "value",
          "type": "uint256"
        }
      ],
      "name": "transfer",
      "outputs": [
        {
          "internalType": "bool",
          "name": "",
          "type": "bool"
        }
      ],
      "stateMutability": "nonpayable",
      "type": "function"
    }
  ],
  "bytecode": "0x608060405234801561001057600080fd5b5033600090815260208190526040902069021e19e0c9bab240000090556103478061003c6000396000f3fe608060405234801561001057600080fd5b5060043610610073577c0100000000000000000000000000000000000000000000000000000000600035046327e235e3811461007857806368ad6a14146100ab5780637bd8f49c146100b4578063a9059cbb146100ea578063e00506ee1461010d575b600080fd5b610098610086366004610270565b60006020819052908152604090205481565b6040519081526020015b60405180910390f35b6100986101f481565b6100986100c2366004610270565b73ffffffffffffffffffffffffffffffffffffffff1660009081526020819052604090205490565b6100fd6100f8366004610292565b610115565b60405190151581526020016100a2565b610098600581565b33600090815260208190526040812054821115610192576040517f08c379a000000000000000000000000000000000000000000000000000000000815260206004820152601560248201527f496e73756666696369656e742062616c616e63652e0000000000000000000000604482015260640160405180910390fd5b33600090815260208190526040812080548492906101b19084906102eb565b909155505073ffffffffffffffffffffffffffffffffffffffff8316600090815260208190526040812080548492906101eb9084906102fe565b909155505060405182815273ffffffffffffffffffffffffffffffffffffffff84169033907fddf252ad1be2c89b69c2b068fc378daa952ba7f163c4a11628f55a4df523b3ef9060200160405180910390a35060015b92915050565b803573ffffffffffffffffffffffffffffffffffffffff8116811461026b57600080fd5b919050565b60006020828403121561028257600080fd5b61028b82610247565b9392505050565b600080604083850312156102a557600080fd5b6102ae83610247565b946020939093013593505050565b7f4e487b7100000000000000000000000000000000000000000000000000000000600052601160045260246000fd5b81810381811115610241576102416102bc565b80820180821115610241576102416102bc56fea2646970667358221220ab96010f38cd3dd202d25e54fd7605debe833b5e331673a1394e85431cce1cb564736f6c63430008140033",
  "immutableReferences": {},
  "source": "// SPDX-License-Identifier: MIT\npragma solidity ^0.8.19 ;\ncontract PlaylistLikes {\n    // mapping(address => uint) public userCoins;\n    mapping(address => uint) public balances;\n    uint public constant LIKE_THRESHOLD = 5;\n    uint public constant COIN_REWARD = 500; // 0.5 Ether\n\n    event CoinRewarded(address indexed user, uint coins);\n    event Transfer(address indexed from, address indexed to, uint value);\n    constructor (){\n        balances[msg.sender] = 10000000000000000000000;\n    }\n\n    function getUserCoins(address user) public view returns (uint) {\n        return balances[user];\n    } \n\n    function transfer(address to ,uint value ) public returns (bool) {\n        \n        require(balances[msg.sender] >= value, \"Insufficient balance.\");\n        balances[msg.sender] -= value;\n        balances[to] += value;\n        emit Transfer(msg.sender, to, value);\n        return true;\n    }\n}",
  "sourcePath": "/Users/bichngoc/Documents/GitHub/MusicApp2/contracts/PlaylistLikes.sol",
  "compiler": {
    "name": "solc",
    "version": "0.8.20+commit.a1b79de6.Emscripten.clang"
  },
  "schemaVersion": "3.4.16",
  "updatedAt": "2024-06-06T07:11:35.455Z",
  "networkType": "ethereum",
  "devdoc": {
    "kind": "dev",
    "methods": {},
    "version": 1
  },
  "userdoc": {
    "kind": "user",
    "methods": {},
    "version": 1
  }
}